BL51 BANKED LINKER/LOCATER V6.22.2.0                                                    01/10/2022  17:14:41  PAGE 1


BL51 BANKED LINKER/LOCATER V6.22.2.0, INVOKED BY:
C:\KEIL_V5\C51\BIN\BL51.EXE main.obj, temp.obj, adc0832.obj, eeprom.obj TO template RAMSIZE (256)


MEMORY MODEL: COMPACT WITH FLOATING POINT ARITHMETIC


INPUT MODULES INCLUDED:
  main.obj (MAIN)
  temp.obj (TEMP)
  adc0832.obj (ADC0832)
  eeprom.obj (EEPROM)
  C:\KEIL_V5\C51\LIB\C51FPC.LIB (?C?FPADD)
  C:\KEIL_V5\C51\LIB\C51FPC.LIB (?C?FPMUL)
  C:\KEIL_V5\C51\LIB\C51FPC.LIB (?C?FPDIV)
  C:\KEIL_V5\C51\LIB\C51FPC.LIB (?C?FPCMP)
  C:\KEIL_V5\C51\LIB\C51FPC.LIB (?C?FCAST)
  C:\KEIL_V5\C51\LIB\C51FPC.LIB (?C?CASTF)
  C:\KEIL_V5\C51\LIB\C51FPC.LIB (?C?FPGETOPN)
  C:\KEIL_V5\C51\LIB\C51C.LIB (?C_STARTUP)
  C:\KEIL_V5\C51\LIB\C51C.LIB (?C?CLDPTR)
  C:\KEIL_V5\C51\LIB\C51C.LIB (?C?CLDOPTR)
  C:\KEIL_V5\C51\LIB\C51C.LIB (?C?CILDOPTR)
  C:\KEIL_V5\C51\LIB\C51C.LIB (?C?CSTPTR)
  C:\KEIL_V5\C51\LIB\C51C.LIB (?C?CSTOPTR)
  C:\KEIL_V5\C51\LIB\C51C.LIB (?C?UIDIV)
  C:\KEIL_V5\C51\LIB\C51C.LIB (?C?SIDIV)
  C:\KEIL_V5\C51\LIB\C51C.LIB (?C?LNEG)
  C:\KEIL_V5\C51\LIB\C51C.LIB (?C?LSTPDATA)
  C:\KEIL_V5\C51\LIB\C51C.LIB (?C?MEMSET)
  C:\KEIL_V5\C51\LIB\C51C.LIB (?C_INIT)


LINK MAP OF MODULE:  template (MAIN)


            TYPE    BASE      LENGTH    RELOCATION   SEGMENT NAME
            -----------------------------------------------------

            * * * * * * *   D A T A   M E M O R Y   * * * * * * *
            REG     0000H     0008H     ABSOLUTE     "REG BANK 0"
                    0008H     0018H                  *** GAP ***
            BIT     0020H.0   0001H.7   UNIT         ?BI?MAIN
                    0021H.7   0000H.1                *** GAP ***
            IDATA   0022H     0001H     UNIT         ?STACK

            * * * * * * *  X D A T A   M E M O R Y  * * * * * * *
            XDATA   0000H     0043H     INPAGE       ?PD?MAIN
            XDATA   0043H     0015H     INPAGE       _PDATA_GROUP_

            * * * * * * *   C O D E   M E M O R Y   * * * * * * *
            CODE    0000H     0003H     ABSOLUTE     
            CODE    0003H     001EH     UNIT         ?PR?_DELAY1MS?TEMP
                    0021H     0002H                  *** GAP ***
            CODE    0023H     0003H     ABSOLUTE     
            CODE    0026H     0554H     UNIT         ?C?LIB_CODE
            CODE    057AH     04D3H     UNIT         ?PR?MAIN?MAIN
            CODE    0A4DH     01C2H     UNIT         ?PR?_INT2STRING?MAIN
BL51 BANKED LINKER/LOCATER V6.22.2.0                                                  01/10/2022  17:14:41  PAGE 2


            CODE    0C0FH     019EH     UNIT         ?PR?UARTMANAGE?MAIN
            CODE    0DADH     0196H     UNIT         ?CO?MAIN
            CODE    0F43H     00BCH     UNIT         ?PR?DISPLAYSHUJU?MAIN
            CODE    0FFFH     008CH     UNIT         ?PR?_SHIDUCHOICE?MAIN
            CODE    108BH     008CH     UNIT         ?C_C51STARTUP
            CODE    1117H     0071H     UNIT         ?PR?KEYPROS?MAIN
            CODE    1188H     006DH     UNIT         ?C_INITSEG
            CODE    11F5H     005FH     UNIT         ?PR?BEEPWARING?MAIN
            CODE    1254H     0052H     UNIT         ?PR?USART?MAIN
            CODE    12A6H     004DH     UNIT         ?PR?ESP8266_INIT?MAIN
            CODE    12F3H     004AH     UNIT         ?PR?_DATAPROS1?MAIN
            CODE    133DH     004AH     UNIT         ?PR?_DS18B20WRITEBYTE?TEMP
            CODE    1387H     003EH     UNIT         ?PR?DS18B20READBYTE?TEMP
            CODE    13C5H     003CH     UNIT         ?PR?GET_ADC?ADC0832
            CODE    1401H     002EH     UNIT         ?PR?_DELAYSS?MAIN
            CODE    142FH     0028H     UNIT         ?PR?DS18B20INIT?TEMP
            CODE    1457H     0023H     UNIT         ?PR?_SENDSTRING?MAIN
            CODE    147AH     0022H     UNIT         ?PR?_BYTE_WRITE?EEPROM
            CODE    149CH     001DH     UNIT         ?PR?_DELAY?MAIN
            CODE    14B9H     001AH     UNIT         ?PR?IO_INIT?MAIN
            CODE    14D3H     001AH     UNIT         ?PR?DS18B20READTEMP?TEMP
            CODE    14EDH     001AH     UNIT         ?PR?_BYTE_READ?EEPROM
            CODE    1507H     0014H     UNIT         ?PR?ISP_IAP_ENABLE?EEPROM
            CODE    151BH     0013H     UNIT         ?PR?_SECTORERASE?EEPROM
            CODE    152EH     000BH     UNIT         ?PR?_STRINGTONUM?MAIN
            CODE    1539H     000BH     UNIT         ?PR?ISP_IAP_DISABLE?EEPROM
            CODE    1544H     0008H     UNIT         ?PR?_SENDBYTE?MAIN
            CODE    154CH     0008H     UNIT         ?PR?DS18B20CHANGTEMP?TEMP
            CODE    1554H     0008H     UNIT         ?PR?DS18B20READTEMPCOM?TEMP
            CODE    155CH     0008H     UNIT         ?PR?ISPTRIG?EEPROM



OVERLAY MAP OF MODULE:   template (MAIN)


SEGMENT                               PDATA_GROUP
  +--> CALLED SEGMENT               START    LENGTH
---------------------------------------------------
?C_C51STARTUP                       -----    -----
  +--> ?PR?MAIN?MAIN
  +--> ?C_INITSEG

?PR?MAIN?MAIN                       0043H    000CH
  +--> ?PR?IO_INIT?MAIN
  +--> ?PR?KEYPROS?MAIN
  +--> ?PR?UARTMANAGE?MAIN
  +--> ?CO?MAIN
  +--> ?PR?_DELAYSS?MAIN
  +--> ?PR?_BYTE_READ?EEPROM
  +--> ?PR?_SENDSTRING?MAIN
  +--> ?PR?_INT2STRING?MAIN
  +--> ?PR?DISPLAYSHUJU?MAIN
  +--> ?PR?DS18B20READTEMP?TEMP
  +--> ?PR?_DATAPROS1?MAIN
  +--> ?PR?GET_ADC?ADC0832
  +--> ?PR?_SHIDUCHOICE?MAIN
BL51 BANKED LINKER/LOCATER V6.22.2.0                                                  01/10/2022  17:14:41  PAGE 3


  +--> ?PR?BEEPWARING?MAIN
  +--> ?PR?ESP8266_INIT?MAIN
  +--> ?PR?_DELAY?MAIN
  +--> ?PR?_SECTORERASE?EEPROM
  +--> ?PR?_BYTE_WRITE?EEPROM

?PR?KEYPROS?MAIN                    -----    -----
  +--> ?PR?_DELAY?MAIN

?PR?_DELAY?MAIN                     -----    -----
  +--> ?CO?MAIN
  +--> ?PR?_SENDSTRING?MAIN

?PR?_SENDSTRING?MAIN                -----    -----
  +--> ?CO?MAIN
  +--> ?PR?_SENDBYTE?MAIN

?PR?UARTMANAGE?MAIN                 -----    -----
  +--> ?PR?_SENDBYTE?MAIN
  +--> ?CO?MAIN
  +--> ?PR?_DELAYSS?MAIN
  +--> ?PR?_STRINGTONUM?MAIN
  +--> ?PR?_INT2STRING?MAIN
  +--> ?PR?_SENDSTRING?MAIN
  +--> ?PR?_SECTORERASE?EEPROM
  +--> ?PR?_BYTE_WRITE?EEPROM

?PR?_DELAYSS?MAIN                   -----    -----
  +--> ?PR?_SENDSTRING?MAIN
  +--> ?CO?MAIN

?PR?_INT2STRING?MAIN                004FH    0009H

?PR?_SECTORERASE?EEPROM             -----    -----
  +--> ?PR?ISP_IAP_ENABLE?EEPROM
  +--> ?PR?ISPTRIG?EEPROM
  +--> ?PR?ISP_IAP_DISABLE?EEPROM

?PR?_BYTE_WRITE?EEPROM              -----    -----
  +--> ?PR?ISP_IAP_ENABLE?EEPROM
  +--> ?PR?ISPTRIG?EEPROM
  +--> ?PR?ISP_IAP_DISABLE?EEPROM

?PR?_BYTE_READ?EEPROM               -----    -----
  +--> ?PR?ISP_IAP_ENABLE?EEPROM
  +--> ?PR?ISPTRIG?EEPROM
  +--> ?PR?ISP_IAP_DISABLE?EEPROM

?PR?DISPLAYSHUJU?MAIN               -----    -----
  +--> ?PR?DS18B20READTEMP?TEMP
  +--> ?PR?_DATAPROS1?MAIN
  +--> ?PR?_INT2STRING?MAIN
  +--> ?PR?GET_ADC?ADC0832
  +--> ?PR?_SHIDUCHOICE?MAIN
  +--> ?CO?MAIN
  +--> ?PR?_SENDSTRING?MAIN

BL51 BANKED LINKER/LOCATER V6.22.2.0                                                  01/10/2022  17:14:41  PAGE 4


?PR?DS18B20READTEMP?TEMP            004FH    0001H
  +--> ?PR?DS18B20CHANGTEMP?TEMP
  +--> ?PR?DS18B20READTEMPCOM?TEMP
  +--> ?PR?DS18B20READBYTE?TEMP

?PR?DS18B20CHANGTEMP?TEMP           -----    -----
  +--> ?PR?_DS18B20WRITEBYTE?TEMP

?PR?_DS18B20WRITEBYTE?TEMP          0050H    0002H
  +--> ?PR?DS18B20INIT?TEMP
  +--> ?PR?_DELAY1MS?TEMP

?PR?DS18B20INIT?TEMP                -----    -----
  +--> ?PR?_DELAY1MS?TEMP

?PR?DS18B20READTEMPCOM?TEMP         -----    -----
  +--> ?PR?_DS18B20WRITEBYTE?TEMP

?PR?_DATAPROS1?MAIN                 004FH    0004H

?PR?_SHIDUCHOICE?MAIN               004FH    0004H

?PR?BEEPWARING?MAIN                 -----    -----
  +--> ?PR?_DELAY?MAIN

?PR?ESP8266_INIT?MAIN               -----    -----
  +--> ?PR?_DELAY?MAIN
  +--> ?CO?MAIN
  +--> ?PR?_SENDSTRING?MAIN
  +--> ?PR?_DELAYSS?MAIN



SYMBOL TABLE OF MODULE:  template (MAIN)

  VALUE           TYPE          NAME
  ----------------------------------

  -------         MODULE        MAIN
  C:0000H         SYMBOL        _ICE_DUMMY_
  B:0020H.0       PUBLIC        humidityWriteFlag
  D:0090H         PUBLIC        P1
  X:0001H         PUBLIC        shidua
  D:00A0H         PUBLIC        P2
  X:0002H         PUBLIC        shidub
  D:00B0H         PUBLIC        P3
  B:00A8H.7       PUBLIC        EA
  X:0003H         PUBLIC        wendushujuString1
  X:0008H         PUBLIC        wendushujuString2
  X:000DH         PUBLIC        wendua
  X:000EH         PUBLIC        wendub
  B:0020H.1       PUBLIC        temphUpdate
  C:0C0FH         PUBLIC        Uartmanage
  C:0F43H         PUBLIC        Displayshuju
  D:00A8H         PUBLIC        IE
  C:14B9H         PUBLIC        IO_Init
  C:1254H         PUBLIC        Usart
BL51 BANKED LINKER/LOCATER V6.22.2.0                                                  01/10/2022  17:14:41  PAGE 5


  C:111EH         PUBLIC        keypros
  C:1532H         PUBLIC        _StringTonum
  C:14AEH         PUBLIC        _delay
  C:12F3H         PUBLIC        _datapros1
  B:0090H.6       PUBLIC        mada
  B:0020H.2       PUBLIC        espConnectFlag
  B:00A8H.4       PUBLIC        ES
  D:00B8H         PUBLIC        IP
  B:0098H.0       PUBLIC        RI
  B:0020H.3       PUBLIC        key4flag
  B:00A0H.7       PUBLIC        k1
  X:000FH         PUBLIC        humiditySetString
  B:00A0H.6       PUBLIC        k2
  B:0098H.1       PUBLIC        TI
  B:0020H.4       PUBLIC        humiditySetFlag
  B:00A0H.5       PUBLIC        k3
  B:00B0H.6       PUBLIC        beep
  B:00A0H.4       PUBLIC        k4
  X:0014H         PUBLIC        temp_length
  B:00A0H.3       PUBLIC        k5
  B:00A0H.2       PUBLIC        k6
  B:00A0H.1       PUBLIC        k7
  C:1544H         PUBLIC        _SendByte
  B:00A0H.0       PUBLIC        k8
  C:057AH         PUBLIC        main
  C:1467H         PUBLIC        _sendString
  X:0015H         PUBLIC        data_count
  X:0016H         PUBLIC        tempbijiao
  B:0020H.5       PUBLIC        temphWriteFlag
  D:0099H         PUBLIC        SBUF
  D:0087H         PUBLIC        PCON
  D:0098H         PUBLIC        SCON
  D:0089H         PUBLIC        TMOD
  D:0088H         PUBLIC        TCON
  C:12A6H         PUBLIC        ESP8266_Init
  X:0017H         PUBLIC        temp
  B:0020H.6       PUBLIC        StarRsult
  B:0020H.7       PUBLIC        humidityUartSetFlag
  B:0021H.0       PUBLIC        Data_flished
  B:0021H.1       PUBLIC        Flished_flag
  X:0021H         PUBLIC        temphSetString
  B:0021H.2       PUBLIC        temphSetFlag
  X:0026H         PUBLIC        RevBuf
  D:008DH         PUBLIC        TH1
  D:008BH         PUBLIC        TL1
  X:0030H         PUBLIC        shidudatString
  B:0088H.6       PUBLIC        TR1
  B:0021H.3       PUBLIC        Beepout
  C:0A5DH         PUBLIC        _Int2String
  B:0021H.4       PUBLIC        humidityUpdate
  X:0035H         PUBLIC        shidudat
  X:0036H         PUBLIC        PublicString
  X:003BH         PUBLIC        a
  X:003CH         PUBLIC        espmadaflage
  D:00C8H         PUBLIC        T2CON
  C:11F5H         PUBLIC        BEEPWARING
  B:0021H.5       PUBLIC        temphUartSetFlag
BL51 BANKED LINKER/LOCATER V6.22.2.0                                                  01/10/2022  17:14:41  PAGE 6


  X:003DH         PUBLIC        n
  C:1005H         PUBLIC        _shiduChoice
  X:003EH         PUBLIC        espConnectoutFlag
  B:0021H.6       PUBLIC        UartOutStar
  X:003FH         PUBLIC        wendushujuNumber1
  C:1411H         PUBLIC        _delayss
  X:0041H         PUBLIC        wendushujuNumber2
  D:00D0H         PUBLIC        PSW
  C:1403H         SYMBOL        L?0164
  C:140AH         SYMBOL        L?0165
  C:140DH         SYMBOL        L?0166
  -------         PROC          L?0163
  -------         ENDPROC       L?0163
  C:1403H         SYMBOL        L?0164
  C:140AH         SYMBOL        L?0165
  C:140DH         SYMBOL        L?0166
  -------         PROC          _DELAYSS
  D:0006H         SYMBOL        x
  -------         DO            
  D:0006H         SYMBOL        i
  D:0004H         SYMBOL        j
  -------         ENDDO         
  C:1411H         LINE#         98
  C:1411H         LINE#         99
  C:1411H         LINE#         101
  C:141AH         LINE#         102
  C:142EH         LINE#         103
  -------         ENDPROC       _DELAYSS
  C:14AAH         SYMBOL        L?0168
  -------         PROC          L?0167
  -------         ENDPROC       L?0167
  C:14AAH         SYMBOL        L?0168
  -------         PROC          _DELAY
  D:0006H         SYMBOL        i
  C:14AEH         LINE#         108
  C:14AEH         LINE#         109
  C:14AEH         LINE#         110
  C:14B8H         LINE#         111
  -------         ENDPROC       _DELAY
  -------         PROC          IO_INIT
  C:14B9H         LINE#         120
  C:14B9H         LINE#         121
  C:14B9H         LINE#         122
  C:14BCH         LINE#         123
  C:14BFH         LINE#         124
  C:14C2H         LINE#         125
  C:14C5H         LINE#         126
  C:14C8H         LINE#         127
  C:14CAH         LINE#         128
  C:14CCH         LINE#         129
  C:14CEH         LINE#         130
  C:14D0H         LINE#         131
  C:14D2H         LINE#         132
  -------         ENDPROC       IO_INIT
  -------         PROC          _SENDBYTE
  D:0007H         SYMBOL        dat
  C:1544H         LINE#         139
BL51 BANKED LINKER/LOCATER V6.22.2.0                                                  01/10/2022  17:14:41  PAGE 7


  C:1544H         LINE#         140
  C:1544H         LINE#         141
  C:1546H         LINE#         142
  C:1549H         LINE#         143
  C:154BH         LINE#         144
  -------         ENDPROC       _SENDBYTE
  C:145FH         SYMBOL        L?0174
  C:1460H         SYMBOL        L?0175
  C:1463H         SYMBOL        L?0176
  -------         PROC          L?0173
  -------         ENDPROC       L?0173
  C:145FH         SYMBOL        L?0174
  C:1460H         SYMBOL        L?0175
  C:1463H         SYMBOL        L?0176
  -------         PROC          _SENDSTRING
  D:0001H         SYMBOL        str
  C:1467H         LINE#         151
  C:1467H         LINE#         152
  C:1467H         LINE#         153
  C:146DH         LINE#         155
  C:146DH         LINE#         156
  C:1470H         LINE#         157
  C:1477H         LINE#         158
  C:1479H         LINE#         159
  -------         ENDPROC       _SENDSTRING
  -------         PROC          ESP8266_INIT
  C:12A6H         LINE#         166
  C:12A6H         LINE#         167
  C:12A6H         LINE#         168
  C:12A8H         LINE#         169
  C:12A8H         LINE#         170
  C:12ABH         LINE#         171
  C:12ABH         LINE#         172
  C:12ABH         LINE#         173
  C:12AEH         LINE#         174
  C:12B5H         LINE#         175
  C:12C3H         LINE#         176
  C:12CAH         LINE#         177
  C:12CDH         LINE#         178
  C:12D4H         LINE#         179
  C:12DBH         LINE#         180
  C:12DEH         LINE#         181
  C:12E5H         LINE#         182
  C:12ECH         LINE#         183
  -------         ENDPROC       ESP8266_INIT
  -------         PROC          _DATAPROS1
  D:0006H         SYMBOL        temp
  -------         DO            
  X:004FH         SYMBOL        tp
  -------         ENDDO         
  C:12F3H         LINE#         197
  C:12F3H         LINE#         198
  C:12F3H         LINE#         200
  C:12FBH         LINE#         201
  C:12FBH         LINE#         204
  C:1300H         LINE#         205
  C:1306H         LINE#         206
BL51 BANKED LINKER/LOCATER V6.22.2.0                                                  01/10/2022  17:14:41  PAGE 8


  C:1309H         LINE#         207
  C:1309H         LINE#         211
  C:130BH         LINE#         213
  C:130BH         LINE#         214
  C:1318H         LINE#         216
  C:133CH         LINE#         220
  C:133CH         LINE#         221
  C:133CH         LINE#         222
  -------         ENDPROC       _DATAPROS1
  C:0A55H         SYMBOL        L?0170
  C:0A57H         SYMBOL        L?0171
  C:0A59H         SYMBOL        L?0172
  -------         PROC          L?0169
  -------         ENDPROC       L?0169
  C:0A55H         SYMBOL        L?0170
  C:0A57H         SYMBOL        L?0171
  C:0A59H         SYMBOL        L?0172
  -------         PROC          _INT2STRING
  X:004FH         SYMBOL        num
  X:0051H         SYMBOL        str
  -------         DO            
  X:0054H         SYMBOL        i
  X:0056H         SYMBOL        j
  -------         ENDDO         
  C:0A5DH         LINE#         231
  C:0A6EH         LINE#         232
  C:0A6EH         LINE#         233
  C:0A74H         LINE#         234
  C:0A78H         LINE#         235
  C:0A80H         LINE#         236
  C:0A80H         LINE#         237
  C:0A92H         LINE#         238
  C:0AB1H         LINE#         239
  C:0AB1H         LINE#         242
  C:0AB1H         LINE#         243
  C:0AE2H         LINE#         244
  C:0AF7H         LINE#         245
  C:0AFAH         LINE#         247
  C:0B10H         LINE#         250
  C:0B16H         LINE#         251
  C:0B16H         LINE#         252
  C:0B1DH         LINE#         253
  C:0B1FH         LINE#         254
  C:0B1FH         LINE#         256
  C:0B45H         LINE#         257
  C:0B45H         LINE#         259
  C:0B75H         LINE#         260
  C:0BC1H         LINE#         261
  C:0BF6H         LINE#         262
  C:0C04H         LINE#         264
  C:0C0EH         LINE#         265
  -------         ENDPROC       _INT2STRING
  C:152EH         SYMBOL        L?0178
  -------         PROC          L?0177
  -------         ENDPROC       L?0177
  C:152EH         SYMBOL        L?0178
  -------         PROC          _STRINGTONUM
BL51 BANKED LINKER/LOCATER V6.22.2.0                                                  01/10/2022  17:14:41  PAGE 9


  D:0007H         SYMBOL        num
  C:1532H         LINE#         273
  C:1532H         LINE#         274
  C:1532H         LINE#         275
  C:1538H         LINE#         276
  -------         ENDPROC       _STRINGTONUM
  -------         PROC          L?0179
  -------         ENDPROC       L?0179
  -------         PROC          KEYPROS
  -------         DO            
  X:0000H         SYMBOL        key_up
  -------         ENDDO         
  C:111EH         LINE#         284
  C:111EH         LINE#         285
  C:111EH         LINE#         287
  C:1125H         LINE#         288
  C:1125H         LINE#         289
  C:1128H         LINE#         290
  C:1128H         LINE#         291
  C:112BH         LINE#         292
  C:112EH         LINE#         293
  C:1131H         LINE#         294
  C:1131H         LINE#         295
  C:1134H         LINE#         296
  C:1134H         LINE#         297
  C:1137H         LINE#         298
  C:113AH         LINE#         299
  C:113DH         LINE#         300
  C:113DH         LINE#         301
  C:1140H         LINE#         302
  C:1140H         LINE#         303
  C:1143H         LINE#         304
  C:1146H         LINE#         305
  C:1149H         LINE#         306
  C:1149H         LINE#         307
  C:114CH         LINE#         308
  C:114CH         LINE#         309
  C:114FH         LINE#         310
  C:1152H         LINE#         311
  C:1155H         LINE#         312
  C:1155H         LINE#         313
  C:1158H         LINE#         314
  C:1158H         LINE#         315
  C:115BH         LINE#         316
  C:115EH         LINE#         317
  C:1161H         LINE#         318
  C:1161H         LINE#         319
  C:1164H         LINE#         320
  C:1164H         LINE#         321
  C:1167H         LINE#         322
  C:116AH         LINE#         323
  C:116DH         LINE#         324
  C:116DH         LINE#         325
  C:1170H         LINE#         326
  C:1170H         LINE#         327
  C:1173H         LINE#         328
  C:1176H         LINE#         329
BL51 BANKED LINKER/LOCATER V6.22.2.0                                                  01/10/2022  17:14:41  PAGE 10


  C:1179H         LINE#         330
  C:1179H         LINE#         331
  C:117CH         LINE#         332
  C:117CH         LINE#         333
  C:117FH         LINE#         334
  C:1182H         LINE#         335
  C:1185H         LINE#         336
  C:1185H         LINE#         337
  C:1185H         LINE#         338
  C:1187H         LINE#         339
  -------         ENDPROC       KEYPROS
  -------         PROC          BEEPWARING
  -------         DO            
  D:0002H         SYMBOL        i
  -------         ENDDO         
  C:11F5H         LINE#         348
  C:11F5H         LINE#         349
  C:11F5H         LINE#         351
  C:11F8H         LINE#         352
  C:11F8H         LINE#         353
  C:11FAH         LINE#         354
  C:1201H         LINE#         355
  C:120CH         LINE#         356
  C:120FH         LINE#         357
  C:120FH         LINE#         358
  C:1211H         LINE#         359
  C:1218H         LINE#         360
  C:1223H         LINE#         361
  C:1226H         LINE#         362
  C:1226H         LINE#         363
  C:1228H         LINE#         364
  C:122FH         LINE#         365
  C:123AH         LINE#         366
  C:123DH         LINE#         367
  C:123DH         LINE#         368
  C:123FH         LINE#         369
  C:1246H         LINE#         370
  C:1251H         LINE#         371
  C:1253H         LINE#         372
  -------         ENDPROC       BEEPWARING
  -------         PROC          L?0180
  -------         ENDPROC       L?0180
  -------         PROC          _SHIDUCHOICE
  X:004FH         SYMBOL        shidushujiInto
  C:1005H         LINE#         380
  C:100AH         LINE#         382
  C:100AH         LINE#         383
  C:1024H         LINE#         384
  C:1026H         LINE#         385
  C:103EH         LINE#         386
  C:1041H         LINE#         387
  C:105BH         LINE#         388
  C:108AH         LINE#         389
  -------         ENDPROC       _SHIDUCHOICE
  -------         PROC          DISPLAYSHUJU
  C:0F43H         LINE#         396
  C:0F43H         LINE#         397
BL51 BANKED LINKER/LOCATER V6.22.2.0                                                  01/10/2022  17:14:41  PAGE 11


  C:0F43H         LINE#         398
  C:0F54H         LINE#         399
  C:0F68H         LINE#         400
  C:0F7CH         LINE#         401
  C:0F8CH         LINE#         402
  C:0F9CH         LINE#         403
  C:0FA6H         LINE#         404
  C:0FB1H         LINE#         406
  C:0FBAH         LINE#         407
  C:0FC2H         LINE#         408
  C:0FCAH         LINE#         409
  C:0FD2H         LINE#         410
  C:0FDAH         LINE#         411
  C:0FE1H         LINE#         413
  C:0FE8H         LINE#         414
  C:0FF0H         LINE#         415
  C:0FF8H         LINE#         416
  -------         ENDPROC       DISPLAYSHUJU
  -------         PROC          UARTMANAGE
  C:0C0FH         LINE#         424
  C:0C0FH         LINE#         425
  C:0C0FH         LINE#         426
  C:0C12H         LINE#         427
  C:0C12H         LINE#         428
  C:0C23H         LINE#         429
  C:0C23H         LINE#         430
  C:0C29H         LINE#         431
  C:0C30H         LINE#         432
  C:0C32H         LINE#         435
  C:0C34H         LINE#         436
  C:0C34H         LINE#         439
  C:0C3AH         LINE#         440
  C:0C3AH         LINE#         441
  C:0C5EH         LINE#         442
  C:0C5EH         LINE#         443
  C:0C63H         LINE#         444
  C:0C68H         LINE#         445
  C:0C6CH         LINE#         446
  C:0C6CH         LINE#         447
  C:0C6FH         LINE#         448
  C:0C6FH         LINE#         450
  C:0C99H         LINE#         451
  C:0C99H         LINE#         452
  C:0C9EH         LINE#         453
  C:0CA3H         LINE#         454
  C:0CA7H         LINE#         455
  C:0CA7H         LINE#         456
  C:0CAAH         LINE#         457
  C:0CAAH         LINE#         458
  C:0CC3H         LINE#         459
  C:0CC3H         LINE#         460
  C:0CCAH         LINE#         461
  C:0CCAH         LINE#         462
  C:0CD1H         LINE#         463
  C:0CD4H         LINE#         464
  C:0CD4H         LINE#         465
  C:0CDBH         LINE#         466
BL51 BANKED LINKER/LOCATER V6.22.2.0                                                  01/10/2022  17:14:41  PAGE 12


  C:0CDBH         LINE#         467
  C:0CE2H         LINE#         468
  C:0CE7H         LINE#         469
  C:0CF0H         LINE#         470
  C:0CF0H         LINE#         471
  C:0CF3H         LINE#         472
  C:0CF3H         LINE#         473
  C:0CFCH         LINE#         474
  C:0D04H         LINE#         475
  C:0D08H         LINE#         476
  C:0D0BH         LINE#         478
  C:0D12H         LINE#         479
  C:0D1DH         LINE#         481
  C:0D20H         LINE#         482
  C:0D22H         LINE#         483
  C:0D22H         LINE#         484
  C:0D3BH         LINE#         485
  C:0D3BH         LINE#         486
  C:0D42H         LINE#         487
  C:0D42H         LINE#         488
  C:0D49H         LINE#         489
  C:0D4CH         LINE#         490
  C:0D4CH         LINE#         491
  C:0D53H         LINE#         492
  C:0D53H         LINE#         493
  C:0D5AH         LINE#         494
  C:0D5FH         LINE#         495
  C:0D68H         LINE#         496
  C:0D68H         LINE#         497
  C:0D6BH         LINE#         498
  C:0D6BH         LINE#         499
  C:0D74H         LINE#         500
  C:0D7CH         LINE#         501
  C:0D81H         LINE#         502
  C:0D84H         LINE#         504
  C:0D8BH         LINE#         505
  C:0D96H         LINE#         507
  C:0D99H         LINE#         508
  C:0D9BH         LINE#         509
  C:0D9BH         LINE#         510
  C:0D9DH         LINE#         511
  C:0DACH         LINE#         512
  C:0DACH         LINE#         513
  -------         ENDPROC       UARTMANAGE
  -------         PROC          MAIN
  -------         DO            
  X:0043H         SYMBOL        i
  X:0044H         SYMBOL        s
  X:0046H         SYMBOL        t
  X:0047H         SYMBOL        temph
  X:0048H         SYMBOL        temphBeep
  X:0049H         SYMBOL        temphsetold
  X:004AH         SYMBOL        temphsetnew
  X:004BH         SYMBOL        humidityh
  X:004CH         SYMBOL        humidityBeep
  X:004DH         SYMBOL        humiditysetold
  X:004EH         SYMBOL        humiditysetnew
BL51 BANKED LINKER/LOCATER V6.22.2.0                                                  01/10/2022  17:14:41  PAGE 13


  -------         ENDDO         
  C:057AH         LINE#         522
  C:057AH         LINE#         523
  C:057AH         LINE#         524
  C:057EH         LINE#         525
  C:0582H         LINE#         526
  C:058EH         LINE#         527
  C:0599H         LINE#         528
  C:059CH         LINE#         529
  C:059EH         LINE#         530
  C:05A0H         LINE#         537
  C:05A7H         LINE#         538
  C:05A7H         LINE#         539
  C:05A7H         LINE#         540
  C:05AEH         LINE#         541
  C:05D1H         LINE#         542
  C:05D1H         LINE#         543
  C:05D1H         LINE#         545
  C:05D4H         LINE#         546
  C:05DBH         LINE#         548
  C:05DEH         LINE#         549
  C:05DEH         LINE#         550
  C:05E4H         LINE#         551
  C:05E7H         LINE#         552
  C:05ECH         LINE#         553
  C:05EEH         LINE#         554
  C:05EEH         LINE#         556
  C:05F5H         LINE#         557
  C:05F5H         LINE#         558
  C:05F7H         LINE#         559
  C:05F7H         LINE#         561
  C:0605H         LINE#         562
  C:0610H         LINE#         563
  C:0612H         LINE#         564
  C:0614H         LINE#         566
  C:0622H         LINE#         567
  C:062DH         LINE#         568
  C:062FH         LINE#         569
  C:0631H         LINE#         571
  C:0639H         LINE#         572
  C:0639H         LINE#         573
  C:0647H         LINE#         574
  C:0647H         LINE#         575
  C:0649H         LINE#         576
  C:0656H         LINE#         577
  C:0663H         LINE#         578
  C:0663H         LINE#         579
  C:066CH         LINE#         580
  C:0674H         LINE#         581
  C:067DH         LINE#         582
  C:0685H         LINE#         583
  C:068CH         LINE#         584
  C:0696H         LINE#         585
  C:069FH         LINE#         586
  C:06A7H         LINE#         587
  C:06AEH         LINE#         588
  C:06B2H         LINE#         589
BL51 BANKED LINKER/LOCATER V6.22.2.0                                                  01/10/2022  17:14:41  PAGE 14


  C:06B5H         LINE#         590
  C:06BCH         LINE#         591
  C:06C3H         LINE#         592
  C:06CAH         LINE#         593
  C:06CAH         LINE#         594
  C:06CDH         LINE#         595
  C:06CFH         LINE#         596
  C:06D3H         LINE#         597
  C:06D6H         LINE#         598
  C:06D6H         LINE#         599
  C:06D6H         LINE#         600
  C:06D6H         LINE#         602
  C:06D9H         LINE#         603
  C:06D9H         LINE#         604
  C:06E4H         LINE#         605
  C:06E6H         LINE#         606
  C:06E8H         LINE#         607
  C:06E8H         LINE#         610
  C:06EBH         LINE#         611
  C:06EBH         LINE#         612
  C:06F6H         LINE#         613
  C:06F8H         LINE#         614
  C:06FAH         LINE#         615
  C:06FAH         LINE#         617
  C:06FDH         LINE#         618
  C:06FDH         LINE#         619
  C:0700H         LINE#         620
  C:070EH         LINE#         621
  C:070EH         LINE#         622
  C:0710H         LINE#         623
  C:0713H         LINE#         624
  C:0713H         LINE#         625
  C:0713H         LINE#         627
  C:071DH         LINE#         628
  C:071DH         LINE#         629
  C:071FH         LINE#         630
  C:071FH         LINE#         632
  C:072DH         LINE#         633
  C:072DH         LINE#         634
  C:072FH         LINE#         635
  C:0732H         LINE#         636
  C:0732H         LINE#         638
  C:0743H         LINE#         639
  C:074DH         LINE#         641
  C:0750H         LINE#         642
  C:0753H         LINE#         643
  C:0771H         LINE#         644
  C:0773H         LINE#         646
  C:077AH         LINE#         648
  C:0780H         LINE#         649
  C:0786H         LINE#         650
  C:079DH         LINE#         651
  C:079DH         LINE#         652
  C:07ADH         LINE#         653
  C:07AFH         LINE#         655
  C:07B6H         LINE#         657
  C:07B9H         LINE#         658
BL51 BANKED LINKER/LOCATER V6.22.2.0                                                  01/10/2022  17:14:41  PAGE 15


  C:07BCH         LINE#         660
  C:07BFH         LINE#         661
  C:07BFH         LINE#         662
  C:07CCH         LINE#         663
  C:07CEH         LINE#         664
  C:07D1H         LINE#         665
  C:07D1H         LINE#         667
  C:07D4H         LINE#         668
  C:07D4H         LINE#         669
  C:07E1H         LINE#         670
  C:07E3H         LINE#         671
  C:07E6H         LINE#         672
  C:07E6H         LINE#         674
  C:07EDH         LINE#         675
  C:07F1H         LINE#         676
  C:07F1H         LINE#         677
  C:07F3H         LINE#         680
  C:07F6H         LINE#         683
  C:07FDH         LINE#         684
  C:0801H         LINE#         685
  C:0803H         LINE#         686
  C:0808H         LINE#         687
  C:0808H         LINE#         688
  C:080CH         LINE#         689
  C:080EH         LINE#         692
  C:080EH         LINE#         693
  C:0814H         LINE#         694
  C:0816H         LINE#         695
  C:0819H         LINE#         698
  C:0819H         LINE#         699
  C:0819H         LINE#         702
  C:0819H         LINE#         703
  C:081BH         LINE#         704
  C:081EH         LINE#         705
  C:0821H         LINE#         708
  C:0821H         LINE#         709
  C:0824H         LINE#         710
  C:0824H         LINE#         711
  C:0829H         LINE#         712
  C:082BH         LINE#         713
  C:082BH         LINE#         714
  C:0842H         LINE#         715
  C:0842H         LINE#         716
  C:0849H         LINE#         717
  C:0850H         LINE#         718
  C:0854H         LINE#         719
  C:0854H         LINE#         720
  C:0856H         LINE#         721
  C:0856H         LINE#         722
  C:085CH         LINE#         723
  C:085EH         LINE#         724
  C:0861H         LINE#         725
  C:0864H         LINE#         726
  C:086BH         LINE#         727
  C:086BH         LINE#         728
  C:0872H         LINE#         729
  C:0875H         LINE#         732
BL51 BANKED LINKER/LOCATER V6.22.2.0                                                  01/10/2022  17:14:41  PAGE 16


  C:0875H         LINE#         733
  C:0875H         LINE#         734
  C:0875H         LINE#         735
  C:0878H         LINE#         736
  C:087EH         LINE#         737
  C:087EH         LINE#         738
  C:0881H         LINE#         739
  C:0883H         LINE#         741
  C:0890H         LINE#         742
  C:0890H         LINE#         743
  C:0892H         LINE#         744
  C:0892H         LINE#         746
  C:08A0H         LINE#         747
  C:08A0H         LINE#         748
  C:08ABH         LINE#         749
  C:08ADH         LINE#         750
  C:08AFH         LINE#         751
  C:08AFH         LINE#         753
  C:08B6H         LINE#         754
  C:08BFH         LINE#         755
  C:08CDH         LINE#         756
  C:08D6H         LINE#         757
  C:08DAH         LINE#         758
  C:08DAH         LINE#         759
  C:08DDH         LINE#         760
  C:08DDH         LINE#         762
  C:08E4H         LINE#         763
  C:08E8H         LINE#         764
  C:08E8H         LINE#         765
  C:08EDH         LINE#         766
  C:08F4H         LINE#         767
  C:08F8H         LINE#         768
  C:08F8H         LINE#         769
  C:08FFH         LINE#         770
  C:08FFH         LINE#         771
  C:0904H         LINE#         772
  C:090BH         LINE#         773
  C:090FH         LINE#         774
  C:090FH         LINE#         775
  C:0916H         LINE#         776
  C:091DH         LINE#         777
  C:091DH         LINE#         778
  C:0923H         LINE#         779
  C:0926H         LINE#         780
  C:0929H         LINE#         781
  C:0932H         LINE#         782
  C:0932H         LINE#         783
  C:0939H         LINE#         784
  C:0944H         LINE#         785
  C:094BH         LINE#         786
  C:0951H         LINE#         787
  C:0954H         LINE#         788
  C:0954H         LINE#         789
  C:0956H         LINE#         790
  C:095CH         LINE#         791
  C:095EH         LINE#         792
  C:0961H         LINE#         793
BL51 BANKED LINKER/LOCATER V6.22.2.0                                                  01/10/2022  17:14:41  PAGE 17


  C:0961H         LINE#         794
  C:0961H         LINE#         795
  C:0961H         LINE#         798
  C:0961H         LINE#         799
  C:0961H         LINE#         800
  C:0961H         LINE#         801
  C:0964H         LINE#         802
  C:096AH         LINE#         803
  C:096AH         LINE#         804
  C:096DH         LINE#         805
  C:096FH         LINE#         807
  C:097CH         LINE#         808
  C:097CH         LINE#         809
  C:097EH         LINE#         810
  C:097EH         LINE#         812
  C:098CH         LINE#         813
  C:098CH         LINE#         814
  C:0997H         LINE#         815
  C:0999H         LINE#         816
  C:099BH         LINE#         817
  C:099BH         LINE#         819
  C:09A2H         LINE#         820
  C:09ABH         LINE#         821
  C:09B9H         LINE#         822
  C:09C2H         LINE#         823
  C:09C6H         LINE#         824
  C:09C6H         LINE#         825
  C:09C9H         LINE#         826
  C:09C9H         LINE#         828
  C:09D0H         LINE#         829
  C:09D4H         LINE#         830
  C:09D4H         LINE#         831
  C:09D9H         LINE#         832
  C:09E0H         LINE#         833
  C:09E4H         LINE#         834
  C:09E4H         LINE#         835
  C:09EBH         LINE#         836
  C:09EBH         LINE#         837
  C:09F0H         LINE#         838
  C:09F7H         LINE#         839
  C:09FBH         LINE#         840
  C:09FBH         LINE#         841
  C:0A02H         LINE#         842
  C:0A09H         LINE#         843
  C:0A09H         LINE#         844
  C:0A0FH         LINE#         845
  C:0A12H         LINE#         846
  C:0A15H         LINE#         847
  C:0A1EH         LINE#         848
  C:0A1EH         LINE#         849
  C:0A25H         LINE#         850
  C:0A30H         LINE#         851
  C:0A37H         LINE#         852
  C:0A3DH         LINE#         853
  C:0A40H         LINE#         854
  C:0A40H         LINE#         855
  C:0A42H         LINE#         856
BL51 BANKED LINKER/LOCATER V6.22.2.0                                                  01/10/2022  17:14:41  PAGE 18


  C:0A48H         LINE#         857
  C:0A4AH         LINE#         858
  -------         ENDPROC       MAIN
  -------         PROC          USART
  -------         DO            
  D:0007H         SYMBOL        temp
  -------         ENDDO         
  C:1254H         LINE#         865
  C:125FH         LINE#         868
  C:1262H         LINE#         869
  C:1262H         LINE#         870
  C:1264H         LINE#         871
  C:1266H         LINE#         872
  C:126BH         LINE#         873
  C:126BH         LINE#         874
  C:1273H         LINE#         875
  C:1278H         LINE#         876
  C:1282H         LINE#         877
  C:1282H         LINE#         878
  C:1284H         LINE#         879
  C:1284H         LINE#         881
  C:1286H         LINE#         883
  C:1286H         LINE#         884
  C:1293H         LINE#         885
  C:1298H         LINE#         886
  C:129BH         LINE#         887
  C:129DH         LINE#         889
  C:129DH         LINE#         891
  C:129DH         LINE#         892
  -------         ENDPROC       USART
  -------         ENDMOD        MAIN

  -------         MODULE        TEMP
  C:0000H         SYMBOL        _ICE_DUMMY_
  C:14D3H         PUBLIC        Ds18b20ReadTemp
  D:0090H         PUBLIC        P1
  D:00B0H         PUBLIC        P3
  C:0003H         PUBLIC        _Delay1ms
  C:1349H         PUBLIC        _Ds18b20WriteByte
  D:00A8H         PUBLIC        IE
  D:00B8H         PUBLIC        IP
  C:1554H         PUBLIC        Ds18b20ReadTempCom
  D:0098H         PUBLIC        SCON
  D:0088H         PUBLIC        TCON
  B:0090H.3       PUBLIC        DSPORT
  C:154CH         PUBLIC        Ds18b20ChangTemp
  D:00C8H         PUBLIC        T2CON
  D:00D0H         PUBLIC        PSW
  C:1387H         PUBLIC        Ds18b20ReadByte
  C:142FH         PUBLIC        Ds18b20Init
  -------         PROC          _DELAY1MS
  D:0006H         SYMBOL        y
  -------         DO            
  D:0004H         SYMBOL        x
  -------         ENDDO         
  C:0003H         LINE#         9
  C:0003H         LINE#         10
BL51 BANKED LINKER/LOCATER V6.22.2.0                                                  01/10/2022  17:14:41  PAGE 19


  C:0003H         LINE#         12
  C:000CH         LINE#         13
  C:000CH         LINE#         14
  C:0019H         LINE#         15
  C:0020H         LINE#         16
  -------         ENDPROC       _DELAY1MS
  -------         PROC          DS18B20INIT
  -------         DO            
  D:0003H         SYMBOL        i
  -------         ENDDO         
  C:142FH         LINE#         24
  C:142FH         LINE#         25
  C:142FH         LINE#         27
  C:1431H         LINE#         28
  C:1433H         LINE#         29
  C:1439H         LINE#         30
  C:143BH         LINE#         31
  C:143CH         LINE#         32
  C:143FH         LINE#         33
  C:143FH         LINE#         34
  C:1446H         LINE#         35
  C:1447H         LINE#         36
  C:1451H         LINE#         37
  C:1451H         LINE#         38
  C:1454H         LINE#         39
  C:1454H         LINE#         41
  C:1454H         LINE#         42
  C:1456H         LINE#         43
  -------         ENDPROC       DS18B20INIT
  -------         PROC          L?0037
  -------         ENDPROC       L?0037
  -------         PROC          _DS18B20WRITEBYTE
  D:0007H         SYMBOL        date
  -------         DO            
  X:0050H         SYMBOL        i
  D:0002H         SYMBOL        j
  -------         ENDDO         
  C:1349H         LINE#         52
  C:1349H         LINE#         53
  C:1349H         LINE#         56
  C:134CH         LINE#         57
  C:134CH         LINE#         58
  C:134EH         LINE#         59
  C:1359H         LINE#         60
  C:135DH         LINE#         61
  C:1363H         LINE#         62
  C:1375H         LINE#         63
  C:1377H         LINE#         64
  C:137BH         LINE#         65
  C:1386H         LINE#         66
  -------         ENDPROC       _DS18B20WRITEBYTE
  -------         PROC          DS18B20READBYTE
  -------         DO            
  D:0001H         SYMBOL        byte
  D:0003H         SYMBOL        bi
  D:0006H         SYMBOL        i
  D:0004H         SYMBOL        j
BL51 BANKED LINKER/LOCATER V6.22.2.0                                                  01/10/2022  17:14:41  PAGE 20


  -------         ENDDO         
  C:1387H         LINE#         75
  C:1387H         LINE#         76
  C:1387H         LINE#         79
  C:138BH         LINE#         80
  C:138BH         LINE#         81
  C:138DH         LINE#         82
  C:1391H         LINE#         83
  C:1393H         LINE#         84
  C:1397H         LINE#         85
  C:139BH         LINE#         86
  C:139FH         LINE#         88
  C:13ABH         LINE#         89
  C:13AFH         LINE#         90
  C:13B9H         LINE#         91
  C:13C2H         LINE#         92
  C:13C4H         LINE#         93
  -------         ENDPROC       DS18B20READBYTE
  -------         PROC          DS18B20CHANGTEMP
  C:154CH         LINE#         101
  C:154CH         LINE#         102
  C:154CH         LINE#         103
  C:154CH         LINE#         104
  C:154CH         LINE#         105
  C:154FH         LINE#         106
  -------         ENDPROC       DS18B20CHANGTEMP
  -------         PROC          DS18B20READTEMPCOM
  C:1554H         LINE#         117
  C:1554H         LINE#         118
  C:1554H         LINE#         120
  C:1554H         LINE#         121
  C:1554H         LINE#         122
  C:1557H         LINE#         123
  -------         ENDPROC       DS18B20READTEMPCOM
  -------         PROC          DS18B20READTEMP
  -------         DO            
  D:0006H         SYMBOL        temp
  D:0007H         SYMBOL        tmh
  X:004FH         SYMBOL        tml
  -------         ENDDO         
  C:14D3H         LINE#         132
  C:14D3H         LINE#         133
  C:14D3H         LINE#         134
  C:14D6H         LINE#         136
  C:14D9H         LINE#         137
  C:14DCH         LINE#         138
  C:14E3H         LINE#         139
  C:14E6H         LINE#         140
  C:14E6H         LINE#         141
  C:14E8H         LINE#         142
  C:14ECH         LINE#         143
  C:14ECH         LINE#         144
  -------         ENDPROC       DS18B20READTEMP
  -------         ENDMOD        TEMP

  -------         MODULE        ADC0832
  C:0000H         SYMBOL        _ICE_DUMMY_
BL51 BANKED LINKER/LOCATER V6.22.2.0                                                  01/10/2022  17:14:41  PAGE 21


  D:0090H         PUBLIC        P1
  D:00B0H         PUBLIC        P3
  D:00A8H         PUBLIC        IE
  B:0090H.2       PUBLIC        CS
  D:00B8H         PUBLIC        IP
  D:0098H         PUBLIC        SCON
  D:0088H         PUBLIC        TCON
  C:13C5H         PUBLIC        Get_ADC
  B:0090H.0       PUBLIC        CLK
  B:0090H.1       PUBLIC        DIO
  D:00C8H         PUBLIC        T2CON
  D:00D0H         PUBLIC        PSW
  -------         PROC          GET_ADC
  -------         DO            
  D:0007H         SYMBOL        dat
  D:0006H         SYMBOL        i
  -------         ENDDO         
  C:13C5H         LINE#         10
  C:13C5H         LINE#         11
  C:13C5H         LINE#         14
  C:13C7H         LINE#         15
  C:13C9H         LINE#         16
  C:13CBH         LINE#         17
  C:13CDH         LINE#         18
  C:13CFH         LINE#         19
  C:13D1H         LINE#         20
  C:13D3H         LINE#         21
  C:13D5H         LINE#         22
  C:13D7H         LINE#         24
  C:13D9H         LINE#         25
  C:13DBH         LINE#         26
  C:13DDH         LINE#         27
  C:13DFH         LINE#         28
  C:13E1H         LINE#         29
  C:13EDH         LINE#         30
  C:13EDH         LINE#         31
  C:13EFH         LINE#         32
  C:13F1H         LINE#         33
  C:13F5H         LINE#         34
  C:13FBH         LINE#         35
  C:13FEH         LINE#         36
  C:1400H         LINE#         37
  C:1400H         LINE#         38
  -------         ENDPROC       GET_ADC
  -------         ENDMOD        ADC0832

  -------         MODULE        EEPROM
  C:0000H         SYMBOL        _ICE_DUMMY_
  D:0090H         PUBLIC        P1
  D:00B0H         PUBLIC        P3
  D:00E6H         PUBLIC        ISP_TRIG
  C:155CH         PUBLIC        ISPTrig
  B:00A8H.7       PUBLIC        EA
  D:00A8H         PUBLIC        IE
  D:00B8H         PUBLIC        IP
  D:00E5H         PUBLIC        ISP_CMD
  D:00E3H         PUBLIC        ISP_ADDRH
BL51 BANKED LINKER/LOCATER V6.22.2.0                                                  01/10/2022  17:14:41  PAGE 22


  D:0098H         PUBLIC        SCON
  C:14EDH         PUBLIC        _byte_read
  D:0088H         PUBLIC        TCON
  D:00E4H         PUBLIC        ISP_ADDRL
  C:1539H         PUBLIC        ISP_IAP_Disable
  C:147AH         PUBLIC        _byte_write
  C:150FH         PUBLIC        ISP_IAP_Enable
  D:00E7H         PUBLIC        ISP_CONTR
  C:151BH         PUBLIC        _SectorErase
  D:00C8H         PUBLIC        T2CON
  D:00E2H         PUBLIC        ISP_DATA
  D:00D0H         PUBLIC        PSW
  -------         PROC          L?0007
  -------         ENDPROC       L?0007
  -------         PROC          ISP_IAP_ENABLE
  C:150FH         LINE#         4
  C:150FH         LINE#         5
  C:150FH         LINE#         6
  C:1511H         LINE#         7
  C:1514H         LINE#         8
  C:1517H         LINE#         9
  C:151AH         LINE#         10
  -------         ENDPROC       ISP_IAP_ENABLE
  -------         PROC          ISP_IAP_DISABLE
  C:1539H         LINE#         13
  C:1539H         LINE#         14
  C:1539H         LINE#         15
  C:153CH         LINE#         16
  C:153FH         LINE#         17
  C:1541H         LINE#         18
  C:1543H         LINE#         19
  -------         ENDPROC       ISP_IAP_DISABLE
  -------         PROC          ISPTRIG
  C:155CH         LINE#         22
  C:155CH         LINE#         23
  C:155CH         LINE#         24
  C:155FH         LINE#         25
  C:1562H         LINE#         26
  C:1563H         LINE#         27
  -------         ENDPROC       ISPTRIG
  -------         PROC          _BYTE_READ
  D:0004H         SYMBOL        byte_addr
  -------         DO            
  D:0007H         SYMBOL        dat
  -------         ENDDO         
  C:14EDH         LINE#         30
  C:14F1H         LINE#         31
  C:14F1H         LINE#         32
  C:14F3H         LINE#         34
  C:14F3H         LINE#         35
  C:14F3H         LINE#         36
  C:14F3H         LINE#         37
  C:14F6H         LINE#         38
  C:14F9H         LINE#         39
  C:14FCH         LINE#         40
  C:14FFH         LINE#         41
  C:1501H         LINE#         42
BL51 BANKED LINKER/LOCATER V6.22.2.0                                                  01/10/2022  17:14:41  PAGE 23


  C:1504H         LINE#         43
  C:1506H         LINE#         44
  C:1506H         LINE#         45
  -------         ENDPROC       _BYTE_READ
  -------         PROC          _BYTE_WRITE
  D:0002H         SYMBOL        byte_addr
  D:0005H         SYMBOL        Orig_data
  C:147AH         LINE#         48
  C:147EH         LINE#         49
  C:147EH         LINE#         50
  C:1480H         LINE#         51
  C:1483H         LINE#         52
  C:1486H         LINE#         53
  C:1489H         LINE#         54
  C:148CH         LINE#         55
  C:148FH         LINE#         56
  C:1493H         LINE#         57
  C:1496H         LINE#         58
  C:1499H         LINE#         59
  C:149BH         LINE#         60
  -------         ENDPROC       _BYTE_WRITE
  -------         PROC          _SECTORERASE
  D:0004H         SYMBOL        sector_addr
  C:151BH         LINE#         62
  C:151FH         LINE#         63
  C:151FH         LINE#         64
  C:151FH         LINE#         65
  C:151FH         LINE#         66
  C:151FH         LINE#         67
  C:1522H         LINE#         68
  C:1525H         LINE#         69
  C:1528H         LINE#         70
  C:152BH         LINE#         71
  -------         ENDPROC       _SECTORERASE
  -------         ENDMOD        EEPROM

  -------         MODULE        ?C?FPADD
  C:002DH         PUBLIC        ?C?FPADD
  C:0029H         PUBLIC        ?C?FPSUB
  -------         ENDMOD        ?C?FPADD

  -------         MODULE        ?C?FPMUL
  C:011EH         PUBLIC        ?C?FPMUL
  -------         ENDMOD        ?C?FPMUL

  -------         MODULE        ?C?FPDIV
  C:0227H         PUBLIC        ?C?FPDIV
  -------         ENDMOD        ?C?FPDIV

  -------         MODULE        ?C?FPCMP
  C:02C6H         PUBLIC        ?C?FPCMP
  C:02C4H         PUBLIC        ?C?FPCMP3
  -------         ENDMOD        ?C?FPCMP

  -------         MODULE        ?C?FCAST
  C:0347H         PUBLIC        ?C?FCASTC
  C:0342H         PUBLIC        ?C?FCASTI
BL51 BANKED LINKER/LOCATER V6.22.2.0                                                  01/10/2022  17:14:41  PAGE 24


  C:033DH         PUBLIC        ?C?FCASTL
  -------         ENDMOD        ?C?FCAST

  -------         MODULE        ?C?CASTF
  C:037BH         PUBLIC        ?C?CASTF
  -------         ENDMOD        ?C?CASTF

  -------         MODULE        ?C?CLDPTR
  C:03FCH         PUBLIC        ?C?CLDPTR
  -------         ENDMOD        ?C?CLDPTR

  -------         MODULE        ?C?CLDOPTR
  C:0415H         PUBLIC        ?C?CLDOPTR
  -------         ENDMOD        ?C?CLDOPTR

  -------         MODULE        ?C?CILDOPTR
  C:0442H         PUBLIC        ?C?CILDOPTR
  -------         ENDMOD        ?C?CILDOPTR

  -------         MODULE        ?C?CSTPTR
  C:0475H         PUBLIC        ?C?CSTPTR
  -------         ENDMOD        ?C?CSTPTR

  -------         MODULE        ?C?CSTOPTR
  C:0487H         PUBLIC        ?C?CSTOPTR
  -------         ENDMOD        ?C?CSTOPTR

  -------         MODULE        ?C?UIDIV
  C:04A9H         PUBLIC        ?C?UIDIV
  -------         ENDMOD        ?C?UIDIV

  -------         MODULE        ?C?SIDIV
  C:04FEH         PUBLIC        ?C?SIDIV
  -------         ENDMOD        ?C?SIDIV

  -------         MODULE        ?C?LNEG
  C:0534H         PUBLIC        ?C?LNEG
  -------         ENDMOD        ?C?LNEG

  -------         MODULE        ?C?LSTPDATA
  C:0542H         PUBLIC        ?C?LSTPDATA
  -------         ENDMOD        ?C?LSTPDATA

  -------         MODULE        ?C?MEMSET
  C:054EH         PUBLIC        ?C?MEMSET
  -------         ENDMOD        ?C?MEMSET

Program Size: data=10.7 xdata=88 code=5474
LINK/LOCATE RUN COMPLETE.  0 WARNING(S),  0 ERROR(S)
