:100DAD0041540D0A0041542B434950535441525460
:100DBD003D22544350222C223139322E3136382ED9
:100DCD0034332E3231222C383038300D0A00415454
:100DDD002B4349504D4F44453D310D0A0041542B95
:100DED0043495053454E440D0A002D2D2D2DBFD591
:100DFD00C6F8CEC2B6C8CAC7002E002E43002D2D90
:100E0D0000CDC1C8C0CAAAB6C8CAC700252D2D2D90
:100E1D002D000D0A00C2EDB4EFD2D1BFAAC6F4A3C6
:100E2D00A100C2EDB4EFD2D1B9D8B1D5A3A100CEF6
:100E3D00C2B6C8D2D1BEADC9E8D6C3CEAAA3BA0038
:100E4D002E6300CAAAB6C8D2D1BEADC9E8D6C3CEEC
:100E5D00AAA3BA00250057494649C1ACBDD3B3C9B1
:100E6D00B9A6A3A1002DB5B1C7B0B5C42DCEC2B6DC
:100E7D00C8C9CFCFDECAC7A3BA002E432D00CAAA58
:100E8D00B6C8C9CFCFDECAC73A000A002D2D2D2D09
:100E9D002D2D2D2D2D2DC7EBB0B4C8B7C8CFBCFC53
:100EAD00CDCBB3F62D2D2D2D2D2D2D2D2D2D00CD65
:100EBD00CBB3F6B3C9B9A6A3A1BCB4BDABBDF8C83D
:100ECD00EBD6F7BDE7C3E6A1AAA1AAA1AAA1AA00E4
:100EDD00BCB4BDABBDF8C8EBC9E8D6C3CEC2B6C86D
:100EED00C9CFCFDE00CEC2B6C8C9CFCFDECAC700CC
:100EFD00CEC2B6C8C9CFCFDEC9E8D6C3CDEAB3C915
:100F0D00A3A100CEC2B6C8C9CFCFDEB4A2B4E6CD80
:100F1D00EAB3C9A3A100BCB4BDABBDF8C8EBC9E829
:100F2D00D6C3CAAAB6C8C9CFCFDE00CAAAB6C8C929
:060F3D00CFCFDECAC700A1
:101188008A26000000000000000000008A17000006
:101198000000000000000000C109811500C108C15D
:1011A80002C10AC104C105C100C10BC103C101C10B
:1011B8000CC107C10DC10EC106853000000000003A
:1011C800813C00813E008503000000000085080086
:1011D8000000000085210000000000850F000000CD
:0C11E800000085360000000000810001BE
:101401007BFF1214677A0E791F1214677FDC7E0549
:10141100D3EF9400EE940040147D6E7C00ED1D70BE
:0D142100011CED4C70F7EF1F70E61E80E31C
:01142E00229B
:10149C007A0D79AD1214677FE87E031214AE7FE8E3
:0214AC007E03BD
:0B14AE00EF1FAC0670011E4C70F62210
:1014B900759850758920758780758DF4758BF4C280
:0A14C90099C298D28ED2ACD2AF22A5
:081544008F993099FDC2992234
:101457001B1214677A0E790B0B1214677A0E791F19
:101467001203FCFF600C121544740129F9E43AFADF
:0314770080EE22E2
:1012A6007BFF12149C12149C7A0D79B21214677F7C
:1012B600E87E031214117FE87E031214117FE87E84
:1012C600031214111214AA7A0D79DB1214677FE83F
:1012D6007E031214111214AA7A0D79EA1214677F8A
:0D12E600E87E031214117FE87E030214AEAF
:1012F300C3EE648094805010EF1F70011EEFF4FF63
:10130300EEF4FEAD07FC8005AD07AC06EC1203421C
:10131300784F120542E4FFFE7DC87C40784FE2FB24
:1013230008E2F908E2FA08E2CBF812011EE4FBFA3C
:09133300F9783F12002D12037B32
:01133C00228E
:100A4D00EFF218E22FF2E2FF7BFE7E007A0079369C
:100A5D007851EBF208EAF208E9F2784FEEF208EF7E
:010A6D00F296
:100A6E00E47854F208F208F208F2C3EE648094803F
:100A7E005031784FE2FE08E2FFC3E49FFFE49E1878
:100A8E00F208EFF208E2FB08E2FA08E2F90808E2DF
:100A9E00FF2401F218E2FE3400F28F828E83742D51
:100AAE00120487784FE2FE08E2FF7C007D0A1204F2
:100ABE00FEED2430FF7851E2FB08E2FA08E2F90875
:100ACE0008E2FD2401F218E2FC3400F28D828C83E0
:100ADE00EF120487784FE2FE08E2FF7C007D0A12D7
:100AEE0004FE784FEEF208EFF24E70B708E2FB0804
:100AFE00E2FA08E2F908E2FE08E2F5828E83E412D9
:100B0E0004871203FCB42D0C7856E4F20804F27834
:100B1E0055020BF87854E2FE08E2FF7C007D0212CB
:100B2E0004FEC37857E29FEE6480F5F018E264800D
:100B3E0095F04003020C0418E224FFFF18E234FF84
:100B4E00FE7856E2FC08E2FDC3EF9DFFEE9CFE78B8
:100B5E0051E2FB08E2FA08E2F98F828E8312041545
:100B6E008D828C831204427855E224FFFF18E23402
:100B7E00FFCFC39DCF9C8F82F583120415FF8D820C
:100B8E008C83120415C39FFF7855E224FFFD18E2F3
:100B9E0034FFFC7856E2FA08E2FBC3ED9BFDEC9ABB
:100BAE00FC7851E2FB08E2FA08E2F98D828C83EFC1
:100BBE001204877856E2FE08E2FFE92FF9EA3EFAC0
:100BCE00C003C002C0011203FCFF7851E2FB08E231
:100BDE00FA08E2F98D828C83120415FEC3EF9ED0C3
:100BEE0001D002D0031204757857E22401F218E204
:100BFE003400F2020B227851E2FB08E2FA08E2F925
:010C0E0022C3
:04152E00781BE2FF45
:07153200EF24D0FF7E002230
:071117007FD07E071214AE29
:10111E007800E26401706020A7091214AA20A703C8
:10112E007F012220A6091214AA20A6037F022220E4
:10113E00A5091214AA20A5037F032220A4091214C4
:10114E00AA20A4037F042220A3091214AA20A30319
:10115E007F052220A2091214AA20A2037F062220B4
:10116E00A1091214AA20A1037F072220A00B12149A
:09117E00AA20A0057F08227F00D1
:011187002245
:1011F500E4FBFAB2B67F2C7E011214AE0BBB0001E4
:101205000AEB64644A70ECE4FAFBB2B67F647E00D4
:101215001214AE0BBB00010AEB64644A70ECE4FAED
:10122500FBB2B67F647E001214AE0BBB00010AEB65
:1012350064644A70ECE4FAFBB2B67F2C7E011214AA
:0E124500AE0BBB00010AEB64644A70ECC2B64B
:011253002278
:060FFF00AC07E4120347F9
:10100500784F120542E4FFFE7D7F7C43784FE2FB7B
:1010150008E2F908E2FA08E2CBF81202C47002FF0E
:1010250022E4FFFEFDFC784FE2FB08E2F908E2FA54
:1010350008E2CBF81202C470037F6422E4FFFE7D50
:101045007F7C43784FE2FB08E2F908E2FA08E2CB3D
:10105500F81202C4502F784FE2FB08E2F908E2FAD1
:1010650008E2CBF8E4FFFE7D7F7C43120029E4FB18
:10107500FA797F7843120227E4FBFA79C87842129D
:06108500011E12037B2294
:100F43001214D31212F37C007D631204FE7816EFA1
:100F5300F21214D31212F37C007D641204A9783FB9
:100F6300EEF208EFF21214D31212F37C007D641236
:100F730004A97841ECF208EDF2783FE2FE08E2FFC3
:100F83007BFE7A007903120A5D7841E2FE08E2FFF4
:100F93007BFE7A007908120A5D1213C5120FFF78DF
:100FA30035EFF27E007BFE7A007930120A5D7BFF1B
:100FB3007A0D79F71214671B7A0079031214670B01
:100FC3007A0E79061214671B7A0079081214670BDC
:100FD3007A0E79081214677A0E790B1214677A0E57
:100FE300790E1214671B7A0079301214670B7A0E8C
:0C0FF30079191214677A0E791F02146736
:100C0F00300822E4783DF2783DE2FF2426F8E2FE38
:100C1F006423600D74172FF8EEF2783DE204F28032
:100C2F00E6D209C208200903020DAC7817E2646D01
:100C3F00702E08E26461702808E26464702208E292
:100C4F006461701C08E2646F701608E2B46E117F65
:100C5F003D121544783C7401F27A0E792212140178
:100C6F007817E2646D703408E26461702E08E264F4
:100C7F0064702808E26461702208E2646F701C08D7
:100C8F00E26466701608E2B466117F3D121544786F
:100C9F003C7402F27A0E792F1214017817E264CEA7
:100CAF00707108E264C2706B08E264B6706508E2A6
:100CBF0064C8705F783DE26405700A12152E780DD6
:100CCF00EFF2120A55783DE26406701812152E786D
:100CDF000DEFF275F00AA4F2781CE2FF12153278CC
:100CEF000E120A4D7BFF7A0E793C1214671B7A00A5
:100CFF0079361214677A0E794D12145F7F007E20B9
:100D0F0012151B780DE2FD7F017E2012147A12144A
:100D1F000DD20D7817E264CA707208E264AA706C83
:100D2F0008E264B6706608E264C87060783DE264F9
:100D3F0005700A12152E7801EFF2120A55783DE26E
:100D4F006406701812152E7801EFF275F00AA4F2EE
:100D5F00781CE2FF1215327802120A4D7BFF7A0ED1
:100D6F0079501214671B7A0079361214670B7A0EBA
:100D7F0079611214607F007E2212151B7801E2FD4B
:100D8F007F017E2212147A12140DD207C2097E003F
:0E0D9F007F0A7D007BFE7A00792612054E2227
:10057A00E47843F208F208F208F208F208F2087482
:10058A00FFF208F2E408F208F20874FFF208F21225
:10059A0014B9C296C2B67FE87E0302086F12111E12
:1005AA007846EFF214700302080E1460F014700318
:1005BA000208191470030208211470030208751442
:1005CA0070030209618000120C0F12111E7846EFA7
:1005DA00F23002107BFF7A0E796312140A783E74A5
:1005EA0001F2C202783CE264037002D29620011A38
:1005FA007F017E201214EDEFF4600F7F017E20123E
:10060A0014ED7847EFF208F2D201200C1A7F017E2E
:10061A00221214EDEFF4600F7F017E221214ED789E
:10062A004BEFF208F2D20C783EE270030206D6785B
:10063A0043E204F2C3940274809480401CE4F27F83
:10064A00017E201214ED7847EFF208F27F017E2234
:10065A001214ED784BEFF208F27BFF7A0E797212E0
:10066A0014677848E2FF1B120A577BFE7A00793634
:10067A001214670B7A0E79871214677A0E798B1225
:10068A001467784CE2FF7E001B120A597BFE7A003F
:10069A0079361214670B7A0E79611214677A0E7919
:1006AA00971214677A0E79991214607FF47E0112F8
:1006BA00141112111E7846EFF26402600302063129
:1006CA00783EF2D20E7A0E79BC12140A30070F7FE6
:1006DA00017E221214ED784BEFF208F2C207300DB8
:1006EA000F7F017E201214ED7847EFF208F2C20D57
:1006FA00300E16120C0F7843E204F2C39450748041
:10070A0094804005E4F2120F43783CE2FF7E0064D5
:10071A00017002D296EF24FFFFEE34FFFEEF640170
:10072A004E7005C296783CF21214D31212F37C0072
:10073A007D631204FE7816EFF21213C5120FFF78CA
:10074A0035EFF2200B23300E20784BE2FF7835E2AA
:10075A00C39F400A7847E2FF7816E29F4009783C37
:10076A00E27004D2968002C29612111E7846EFF207
:10077A00300B03020808200E030208087848E2FF3B
:10078A007816E2FEC39F500B784CE2FD7835E2C33F
:10079A009D506BEEC39F500B784CE2FF7835E2C355
:1007AA009F5002D29612111E7846EFF2120C0F12C7
:1007BA000F433007127F017E221214ED784BEFF2BD
:1007CA0008F2C2070205A7300D127F017E2012141B
:1007DA00ED7847EFF208F2C20D0205A712111E7852
:1007EA0046EFF264027002800E1211F512111E78A1
:1007FA0046EFF264027007D20BC2960205A77F0188
:10080A007E008061200B030205A7C20B0205A7D256
:10081A00021212A60205A7200307783C7403F2D23B
:10082A0003784408E22401FFF218E23400FEF2C31E
:10083A00EF94C8EE9400402912111E7846EFF21286
:10084A00111E7846EFF264047002C296E47844F20C
:10085A0008F2C203783CF21211F57FE87E03121403
:10086A00117F017E001214110205A7200A0B7BFFDB
:10087A007A0E79DD121403D20A7F017E201214ED5A
:10088A00784AE26F6002C2057F017E201214EDEF02
:10089A00F4601220050F7F017E201214ED784AEFD2
:1008AA00F218F2D2057FD07E071214AE7BFF7A0EC1
:1008BA00790B1214677849E2FF7E001B7A007921CE
:1008CA00120A5D7BFF7A0E79F21214677A00792197
:1008DA001214571211177846EFF26407701078490C
:1008EA00E204F27F887E131214AEE47846F2784668
:1008FA00E2640870107849E214F27F887E131214B9
:10090A00AEE47846F212111E7846EFF264026003F2
:10091A000208757BFF7A0E79FD12140A12146378A5
:10092A004AE2FF18E26F60227F007E2012151B78D0
:10093A0049E2FD7F017E2012147A7FE87E031214B9
:10094A00117BFF7A0F791012140AC20A7849E278E9
:10095A0047F2C2010205A720040B7BFF7A0F792315
:10096A00121403D2047F017E221214ED784EE26F34
:10097A006002C2007F017E221214EDEFF4601220A1
:10098A00000F7F017E221214ED784EEFF218F2D298
:10099A00007FD07E071214AE7BFF7A0E790B1214F9
:1009AA0067784DE2FF7E001B7A00790F120A5D7BA1
:1009BA00FF7A0F79381214677A00790F12145712D6
:1009CA0011177846EFF264077010784DE204F27F4F
:1009DA00887E131214AEE47846F27846E264087010
:1009EA0010784DE214F27F887E131214AEE4784632
:1009FA00F212111E7846EFF2640260030209617B6B
:100A0A00FF7A0E79FD12140A121463784EE2FF1867
:100A1A00E26F60227F007E2212151B784DE2FD7F75
:100A2A00017E2212147A7FE87E031214117BFF7A68
:100A3A000F791012140AC204784DE2784BF2C20CF4
:030A4A000205A7FB
:0300230002125472
:0B125400C0E0C0D075D000C000C00793
:10125F0030983BC298AF99EF6423601B7815E22456
:10126F0026F8EFF27815E204F2E2C3940A74809440
:10127F0080401BE4F280177815E2FF04F274262FEA
:0E128F00F87423F27815E218F208E4F2D2089F
:09129D00D007D000D0D0D0E0321F
:10000300D3EF9400EE940040147D147C00ED1D703A
:0D001300011CED4C70F7EF1F70E61E80E33E
:0100200022BD
:10142F00C2937B43AF031BEF70FAD293FB3093153C
:10143F007F017E001200030BEBD394027480948023
:07144F0040EB7F00227F014A
:011456002273
:0C133D0012142F7F017E001200037FCCF1
:10134900E4FBFAC2937851E22401F218E23400F284
:10135900EF139293E4F2087406F2785008E2FD2440
:10136900FFF218E2FC34FFF2ED4C70EED293EFC3BA
:0D13790013FF0BBB00010AEB64084A70C6AD
:011386002244
:101387007D087C00C2930FBF0000D2930FBF0000FF
:101397000FBF0000A293E433C43333335480FBE917
:1013A700C3134BF97E007F05EF1FAA0670011E4A83
:0D13B70070F6ED1D70011CED4C70C9AF010A
:0113C4002206
:08154C0012133D7F4402134914
:0815540012133D7FBE02134992
:1014D300E4FFFE12154C121554121387784FEFF2E6
:0914E300121387EFFEE2FDEDFF9C
:0114EC0022DD
:1013C500D292C290C292D291D290C290D291D29032
:1013D500C290C291D290C290D291D290E4FEEEC357
:1013E5009408748094805011D290C290EF25E0FF4C
:0B13F500A291E4334FFF0E80E5D2927E
:0114000022C9
:08150700C2AFECF5E3EDF5E4E1
:0C150F00C2AF53E71843E70143E7802216
:0B15390053E77FE4F5E5F5E6D2AF22B2
:08155C0075E64675E6B90022B0
:0414ED00AD07AC0695
:1014F100E4FF12150753E5F843E50112155CAFE26D
:05150100121539D2AF04
:0115060022C2
:10147A00AB07AA06C2AFEAF5E3EBF5E412150F5380
:10148A00E5F843E502AF058FE212155C121539D271
:02149A00AF227F
:10151B00AD07AC0612150753E5F843E50312155C4E
:03152B000215396D
:100026000203E7E86480F8E933E83360110460F01E
:10003600ED33EC337009E8FCE9FDEAFEEBFF220440
:1000460060DED3EB9FEA9EE99DE8C2E78CF0C2F73B
:1000560095F0400CE8CCF8E9CDF9EACEFAEBCFFB07
:100066001203B285D0F05804700320D5B3E80470AB
:10007600075002B2D50203F192D5EC0460F7E4CC46
:10008600C0E0C398F8603B94186008400DD0E0FBD0
:100096000203C9E4FBFAC9FC8028E830E406E4C997
:1000A600FBE4CAFCE830E305E4C9CACBFCE8540724
:1000B6006010F8C3E913F9EA13FAEB13FBEC13FC2F
:1000C600D8F130F52FC3E49CFCEF9BFFEE9AFEEDD2
:1000D60099FDD0E0FBEF4E4D4C701222DB0302037C
:1000E600EEEC2CFCEF33FFEE33FEED33FDED30E7A7
:1000F600EB0203C9EF2BFFEE3AFEED39FDD0E0FB34
:1001060050130BBB00030203F1ED13FDEE13FEEFDC
:0801160013FFEC13FC0203C906
:10011E00EC4D6011E8497017ED33EC3304600DE4DB
:10012E00FCFFFEFD22E933E8330470F80203E71208
:10013E0003B258046009E4CC248150062850090209
:10014E0003F12840030203EEC0E0EB4A7044B9808D
:10015E0006D0E0FB0203DDEF4E701CBD8008EBFF06
:10016E00EAFEE9FD80EBE98DF0A4FEE5F002020760
:10017E00E9CDF9EAFEEBFFEF89F0A4FCE5F0CE89BC
:10018E00F0A42EFFE435F0CD89F0A42DFEE435F079
:10019E008067EF4E7005BD80D780C3EF8BF0A4ACA7
:1001AE00F0EE8BF0A42CFCE435F0F8EF8AF0A42CE2
:1001BE00E5F038FCE433CB8DF0A42CFCE5F03BF8F5
:1001CE00EE8AF0A42CFCE5F038F8E433CF89F0A4E5
:1001DE002CFCE5F038CF3400CE89F0A42FFFE5F0EB
:1001EE003EFEE433C98DF0A42EFEE5F039CD8AF043
:1001FE00A42FFFE5F03EFEE43DFD33D0E0FB5007BB
:10020E000BBB000F0203F1EC2CFCEF33FFEE33FEC1
:06021E00ED33FD0203C9EF
:100224000203F1EC5D046005E8590470030203E77E
:100234001203B2580460F6EC4860F2EC7004FDFE60
:10024400FF22C860DB2481C85009C39860025006AD
:100254000203EE9850CAF582E9294B4A7005AB8235
:100264000203DD75F0007C1A7880C3EF9BEE9AEDF3
:1002740099400DC3EF9BFFEE9AFEED99FDE842F025
:10028400DC23ACF0D0E0FFD0E0FED0E0FDAB822078
:10029400E7101BEB60BAEC2CFCEF33FFEE33FEED02
:1002A40033FD0203C9E803F830E705C0F075F00038
:1002B400EF2FFFEE33FEED33FD40B830E7C280AAE6
:1002C40074F8CC6480CCC86480C8F58204604FC3E1
:1002D400EB9FF5F0EA9E42F0E99D42F0E89C45F080
:1002E400603C501DE5825FFFE582D313CB5BCBF40A
:1002F4002B5582FB50280ABA002409B90020088033
:100304001DE5825BFBE582D313CF5FCFF4C3132FCC
:100314005582FF50090EBE00050DBD00010CC3EB54
:100324009FF5F0EA9E42F0E99D42F0E89C45F060BA
:0903340007CC4820E701B3EC22DC
:10033D0075F020800E75F010800575F0087D007E3B
:10034D00007F003392D530D503120534EC334010C5
:10035D00EF33FFEE33FEED33FDEC33FCD5F0ED2244
:0E036D00E5F0247EA2D513CC92E7CDCEFF2280
:10037B00EDD2E7CD33EC3392D524814006E4FFFE7A
:10038B00FDFC22FCE4CFCECDCC24E0501174FF80D9
:10039B00EDC3CC13CCCD13CDCE13CECF13CF047076
:0703AB00F030D5DE0205343D
:1003B200E9D2E7C933E833F892D5EDD2E7CD33EC91
:0703C20033FC5002B2D5220A
:1003C900EC30E7100FBF000C0EBE00080DBD000495
:1003D9000BEB6014A2D5EB13FCED92E7FD2274FF41
:1003E900FCFDFEFF22E480F8A2D574FF13FC7D809A
:0303F900E480EFAE
:0300000002108B60
:0C108B00787FE4F6D8FD7581210210D2B8
:1003FC00BB010689828A83E0225002E722BBFE02FF
:09040C00E32289828A83E4932231
:10041500BB010CE58229F582E5833AF583E022509C
:1004250006E92582F8E622BBFE06E92582F8E222E6
:0D043500E58229F582E5833AF583E4932200
:10044200BB010FF8E58229F582E5833AF583E028BE
:10045200F0225009C58229F8E58226F622BBFE0960
:10046200C58229F8E22582F222F8EA2583F583E99A
:03047200932822AA
:10047500BB010689828A83F0225002F722BBFE0166
:02048500F32260
:10048700F8BB010DE58229F582E5833AF583E8F0AB
:10049700225006E92582C8F622BBFE05E92582C857
:0204A700F2223F
:1004A900BC000BBE0029EF8DF084FFADF022E4CC37
:1004B900F875F008EF2FFFEE33FEEC33FCEE9DEC00
:1004C900984005FCEE9DFE0FD5F0E9E4CEFD22ED46
:1004D900F8F5F0EE8420D21CFEADF075F008EF2F90
:1004E900FFED33FD4007985006D5F0F222C398FD81
:0504F9000FD5F0EA221E
:1004FE00C2D5EC30E709B2D5E4C39DFDE49CFCEE19
:10050E0030E715B2D5E4C39FFFE49EFE1204A9C3E3
:10051E00E49DFDE49CFC80031204A930D507C3E4DE
:06052E009FFFE49EFE2287
:0E053400C3E49FFFE49EFEE49DFDE49CFC22D8
:0C054200ECF208EDF208EEF208EFF222F5
:10054E00EF4E6012EF60010EEDBB010B89828A83C4
:10055E00F0A3DFFCDEFA2289F05007F709DFFCA9D1
:0C056E00F022BBFEFCF309DFFCA9F02228
:1010970002057AE493A3F8E493A34003F68001F2F0
:1010A70008DFF48029E493A3F85407240CC8C3335A
:1010B700C4540F4420C8834004F456800146F6DF29
:1010C700E4800B0102040810204080901188E47E20
:1010D700019360BCA3FF543F30E509541FFEE4931E
:1010E700A360010ECF54C025E060A840B8E493A3E5
:1010F700FAE493A3F8E493A3C8C582C8CAC583CA10
:10110700F0A3C8C582C8CAC583CADFE9DEE780BEC7
:0111F40000FA
:00000001FF
